{
  "_format": "hh-sol-artifact-1",
  "contractName": "WavePortal",
  "sourceName": "contracts/WavePortal.sol",
  "abi": [
    {
      "inputs": [],
      "stateMutability": "nonpayable",
      "type": "constructor"
    },
    {
      "anonymous": false,
      "inputs": [
        {
          "indexed": true,
          "internalType": "address",
          "name": "from",
          "type": "address"
        },
        {
          "indexed": false,
          "internalType": "uint256",
          "name": "timestamp",
          "type": "uint256"
        },
        {
          "indexed": false,
          "internalType": "string",
          "name": "message",
          "type": "string"
        }
      ],
      "name": "NewWave",
      "type": "event"
    },
    {
      "inputs": [],
      "name": "getAllWaves",
      "outputs": [
        {
          "components": [
            {
              "internalType": "address",
              "name": "waver",
              "type": "address"
            },
            {
              "internalType": "string",
              "name": "message",
              "type": "string"
            },
            {
              "internalType": "uint256",
              "name": "timestamp",
              "type": "uint256"
            }
          ],
          "internalType": "struct WavePortal.Wave[]",
          "name": "",
          "type": "tuple[]"
        }
      ],
      "stateMutability": "view",
      "type": "function"
    },
    {
      "inputs": [],
      "name": "getTotalWaves",
      "outputs": [
        {
          "internalType": "uint256",
          "name": "",
          "type": "uint256"
        }
      ],
      "stateMutability": "view",
      "type": "function"
    },
    {
      "inputs": [
        {
          "internalType": "string",
          "name": "_message",
          "type": "string"
        }
      ],
      "name": "wave",
      "outputs": [],
      "stateMutability": "nonpayable",
      "type": "function"
    }
  ],
  "bytecode": "0x60806040523480156200001157600080fd5b506200005d6040518060400160405280601c81526020017f48692066726f6d2057617665506f7274616c20636f6e74726163740a000000008152506200006360201b620004501760201c565b620001f7565b62000103816040516024016200007a919062000170565b6040516020818303038152906040527f41304fac000000000000000000000000000000000000000000000000000000007bffffffffffffffffffffffffffffffffffffffffffffffffffffffff19166020820180517bffffffffffffffffffffffffffffffffffffffffffffffffffffffff83818316178352505050506200010660201b60201c565b50565b60008151905060006a636f6e736f6c652e6c6f679050602083016000808483855afa5050505050565b60006200013c8262000194565b6200014881856200019f565b93506200015a818560208601620001b0565b6200016581620001e6565b840191505092915050565b600060208201905081810360008301526200018c81846200012f565b905092915050565b600081519050919050565b600082825260208201905092915050565b60005b83811015620001d0578082015181840152602081019050620001b3565b83811115620001e0576000848401525b50505050565b6000601f19601f8301169050919050565b610dde80620002076000396000f3fe608060405234801561001057600080fd5b50600436106100415760003560e01c8063449d46c0146100465780639a2cdc0814610062578063bd43a90814610080575b600080fd5b610060600480360381019061005b91906107f4565b61009e565b005b61006a610276565b6040516100779190610aa5565b60405180910390f35b6100886102c1565b60405161009591906109bc565b60405180910390f35b60016000808282546100b09190610bac565b925050819055506100f76040518060400160405280601881526020017f257320776176656420772f206d6573736167652025733a20000000000000000081525033836104e9565b600160405180606001604052803373ffffffffffffffffffffffffffffffffffffffff16815260200183815260200142815250908060018154018082558091505060019003906000526020600020906003020160009091909190915060008201518160000160006101000a81548173ffffffffffffffffffffffffffffffffffffffff021916908373ffffffffffffffffffffffffffffffffffffffff16021790555060208201518160010190805190602001906101b69291906106e9565b506040820151816002015550506101e5604051806060016040528060278152602001610d826027913933610588565b3373ffffffffffffffffffffffffffffffffffffffff167f5f7e16dc676677766a70e9c5628aa6c54ddb8b6e5188e2ae1e1f17f1ffbea716428360405161022d929190610ac0565b60405180910390a26102736040518060400160405280601e81526020017f4576656e74204e65775761766520686173206265656e20656d69747465640000815250610450565b50565b60006102b96040518060400160405280601881526020017f52657472696576656420746f74616c2077617665732025640000000000000000815250600054610624565b600054905090565b60606103016040518060400160405280601a81526020017f52455455524e3a20676574416c6c57617665733a207761766573000000000000815250610450565b6001805480602002602001604051908101604052809291908181526020016000905b8282101561044757838290600052602060002090600302016040518060600160405290816000820160009054906101000a900473ffffffffffffffffffffffffffffffffffffffff1673ffffffffffffffffffffffffffffffffffffffff1673ffffffffffffffffffffffffffffffffffffffff1681526020016001820180546103ac90610c80565b80601f01602080910402602001604051908101604052809291908181526020018280546103d890610c80565b80156104255780601f106103fa57610100808354040283529160200191610425565b820191906000526020600020905b81548152906001019060200180831161040857829003601f168201915b5050505050815260200160028201548152505081526020019060010190610323565b50505050905090565b6104e68160405160240161046491906109de565b6040516020818303038152906040527f41304fac000000000000000000000000000000000000000000000000000000007bffffffffffffffffffffffffffffffffffffffffffffffffffffffff19166020820180517bffffffffffffffffffffffffffffffffffffffffffffffffffffffff83818316178352505050506106c0565b50565b61058383838360405160240161050193929190610a30565b6040516020818303038152906040527fe0e9ad4f000000000000000000000000000000000000000000000000000000007bffffffffffffffffffffffffffffffffffffffffffffffffffffffff19166020820180517bffffffffffffffffffffffffffffffffffffffffffffffffffffffff83818316178352505050506106c0565b505050565b610620828260405160240161059e929190610a00565b6040516020818303038152906040527f319af333000000000000000000000000000000000000000000000000000000007bffffffffffffffffffffffffffffffffffffffffffffffffffffffff19166020820180517bffffffffffffffffffffffffffffffffffffffffffffffffffffffff83818316178352505050506106c0565b5050565b6106bc828260405160240161063a929190610a75565b6040516020818303038152906040527f9710a9d0000000000000000000000000000000000000000000000000000000007bffffffffffffffffffffffffffffffffffffffffffffffffffffffff19166020820180517bffffffffffffffffffffffffffffffffffffffffffffffffffffffff83818316178352505050506106c0565b5050565b60008151905060006a636f6e736f6c652e6c6f679050602083016000808483855afa5050505050565b8280546106f590610c80565b90600052602060002090601f016020900481019282610717576000855561075e565b82601f1061073057805160ff191683800117855561075e565b8280016001018555821561075e579182015b8281111561075d578251825591602001919060010190610742565b5b50905061076b919061076f565b5090565b5b80821115610788576000816000905550600101610770565b5090565b600061079f61079a84610b15565b610af0565b9050828152602081018484840111156107b757600080fd5b6107c2848285610c3e565b509392505050565b600082601f8301126107db57600080fd5b81356107eb84826020860161078c565b91505092915050565b60006020828403121561080657600080fd5b600082013567ffffffffffffffff81111561082057600080fd5b61082c848285016107ca565b91505092915050565b6000610841838361094e565b905092915050565b61085281610c02565b82525050565b61086181610c02565b82525050565b600061087282610b56565b61087c8185610b79565b93508360208202850161088e85610b46565b8060005b858110156108ca57848403895281516108ab8582610835565b94506108b683610b6c565b925060208a01995050600181019050610892565b50829750879550505050505092915050565b60006108e782610b61565b6108f18185610b8a565b9350610901818560208601610c4d565b61090a81610d70565b840191505092915050565b600061092082610b61565b61092a8185610b9b565b935061093a818560208601610c4d565b61094381610d70565b840191505092915050565b60006060830160008301516109666000860182610849565b506020830151848203602086015261097e82826108dc565b9150506040830151610993604086018261099e565b508091505092915050565b6109a781610c34565b82525050565b6109b681610c34565b82525050565b600060208201905081810360008301526109d68184610867565b905092915050565b600060208201905081810360008301526109f88184610915565b905092915050565b60006040820190508181036000830152610a1a8185610915565b9050610a296020830184610858565b9392505050565b60006060820190508181036000830152610a4a8186610915565b9050610a596020830185610858565b8181036040830152610a6b8184610915565b9050949350505050565b60006040820190508181036000830152610a8f8185610915565b9050610a9e60208301846109ad565b9392505050565b6000602082019050610aba60008301846109ad565b92915050565b6000604082019050610ad560008301856109ad565b8181036020830152610ae78184610915565b90509392505050565b6000610afa610b0b565b9050610b068282610cb2565b919050565b6000604051905090565b600067ffffffffffffffff821115610b3057610b2f610d41565b5b610b3982610d70565b9050602081019050919050565b6000819050602082019050919050565b600081519050919050565b600081519050919050565b6000602082019050919050565b600082825260208201905092915050565b600082825260208201905092915050565b600082825260208201905092915050565b6000610bb782610c34565b9150610bc283610c34565b9250827fffffffffffffffffffffffffffffffffffffffffffffffffffffffffffffffff03821115610bf757610bf6610ce3565b5b828201905092915050565b6000610c0d82610c14565b9050919050565b600073ffffffffffffffffffffffffffffffffffffffff82169050919050565b6000819050919050565b82818337600083830152505050565b60005b83811015610c6b578082015181840152602081019050610c50565b83811115610c7a576000848401525b50505050565b60006002820490506001821680610c9857607f821691505b60208210811415610cac57610cab610d12565b5b50919050565b610cbb82610d70565b810181811067ffffffffffffffff82111715610cda57610cd9610d41565b5b80604052505050565b7f4e487b7100000000000000000000000000000000000000000000000000000000600052601160045260246000fd5b7f4e487b7100000000000000000000000000000000000000000000000000000000600052602260045260246000fd5b7f4e487b7100000000000000000000000000000000000000000000000000000000600052604160045260246000fd5b6000601f19601f830116905091905056fe4e6577207761766520686173206265656e207075736865642066726f6d2073656e646572202573a264697066735822122014e0f0715086deed85c915ba90d3f0cb21b9689cca52ea8c17cc1e4356366c9e64736f6c63430008040033",
  "linkReferences": {},
  "deployedLinkReferences": {}
}